:020000040800F2
:10000000F80A002075020008790200087B02000847
:100010007D0200087F020008810200080000000045
:100020000000000000000000000000008302000843
:10003000850200080000000087020008890200080D
:10004000754700088B0200088B0200088B0200082D
:100050008B0200088B0200088B0200088B0200084C
:100060008B0200088B0200088B0200088B0200083C
:100070008B0200088B0200088B0200088B0200082C
:100080008B0200088B0200088B0200088B0200081C
:100090004D4300088B0200088B0200088B02000809
:1000A000CD3A0008593B00088B0200088B0200087B
:1000B000153C0008893C0008093D00088B02000837
:1000C0008B0200088B0200088B0200088B020008DC
:1000D0008B020008493F0008CD3F0008514000084E
:1000E0008B0200088B020008ED40000800F002F8C7
:1000F00000F0B0F80AA090E8000C82448344AAF112
:100100000107DA4501D100F0A5F8AFF2090EBAE80F
:100110000F0013F0010F18BFFB1A43F0010318473B
:10012000E0610000006200000A444FF0000C10F88B
:10013000013B13F0070408BF10F8014B1D1108BF65
:1001400010F8015B641E05D010F8016B641E01F805
:10015000016BF9D113F0080F1EBF10F8014BAD1C55
:100160000C1B09D16D1E58BF01F801CBFAD505E073
:1001700014F8016B01F8016B6D1EF9D59142D6D3CD
:10018000704700000023002400250026103A28BFF5
:1001900078C1FBD8520728BF30C148BF0B607047F9
:1001A0006E2900F01F82702900F06183662904F037
:1001B0001387652904F01087672904F00D876129EA
:1001C000AFF3008003681B0A28BF41F08001692952
:1001D00000F0CC81642900F0C981752900F0C68146
:1001E0006F2900F0EF82782900F02D83E92900F0D3
:1001F0008982E42900F08682F52900F08382EF29C4
:1002000000F0EC82F82900F02C830368DB0928BF9A
:1002100041F08001632900F01487732900F01987E9
:10022000E32900F02487F32900F029870020704794
:100230001FB500F0E3FF04000020002104F0DEFC05
:10024000401C60600020002104F0EEFCE0601FBD57
:1002500010B510BD00F0ADFF1146FFF7E9FF04F047
:1002600069FB01F08BF803B4FFF7F2FF03BC04F065
:1002700020FB000008480047FEE7FEE7FEE7FEE738
:10028000FEE7FEE7FEE7FEE7FEE7FEE70348044978
:10029000044A054B70470000ED000008F8040020F8
:1002A000F80A0020F8060020F80600207047000039
:1002B0001CB50C46064B7B4469460090204600F076
:1002C000AAF904460020694600F0B8F920461CBD92
:1002D0008303000070B5064600F0E2F804680546A6
:1002E00030460A22002100F091FB2C6070BD10B551
:1002F000431C02E010F8011B71B18107FAD14FF0E5
:10030000013202C88C1A8C4314EAC211F9D0C01A07
:100310000A0603D0C01E10BDC01A10BD0A0401D0C9
:10032000801E10BD0902FCD0401E10BD40EA010332
:1003300070B59B072ED14FF00136042A2AD308C886
:1003400010C99D1B9D43121F15EAC61517D0D8B2C0
:10035000E1B2401A50EA056110D198B2A1B2401A38
:1003600050EA05410AD123F07F4024F07F41401A32
:1003700050EA052102D1180EA0EB146070BDA34213
:10038000DBD018BA21BA884201D9012070BD4FF0E4
:10039000FF3070BD0AB9002070BD10F8013B11F8A4
:1003A000014B63B1A3420AD1521E08D010F8013BA1
:1003B00011F8014B1BB1A34201D1521EEDD1181B04
:1003C00070BD10B5044610F0030F08BF11F0030F05
:1003D00040F015804FF0013E121FC0F20E8051F820
:1003E000043BA3EB0E0C2CEA030C1CEACE1C08BF4A
:1003F00040F8043BF0D0A1F1040102F10402521EC6
:1004000008DB11F8013B002B00F8013BF7D1114646
:1004100000F034FB204610BD4FF0013C50F8042B97
:1004200051F8043B9A4221D1A2EB0C03934313EA07
:10043000CC1317D150F8042B51F8043B9A4215D134
:10044000A2EB0C03934313EACC130BD150F8042B0B
:1004500051F8043B9A4209D1A2EB0C03934313EAEF
:10046000CC13DBD04FF00000704700BFD01A01BAA8
:10047000B1FA81F101F0180122FA01F0CB40C1F18B
:100480002001DBB2C0B2C01A2CFA01F3D11A914399
:1004900011EAC311E6D17047704770477047704743
:1004A000004870479804002070B5044685690068CC
:1004B000C10601D5302600E02026C00707D070BD58
:1004C000D4E9012130469047206A401C20626D1E0D
:1004D000F6D570BD70B5044685690078C00707D1B0
:1004E00070BDD4E9012120209047206A401C206281
:1004F0006D1EF6D570BD09684A0501D540B270473A
:10050000C905FCD500B2704709684A0501D5C0B2DB
:100510007047C905FCD580B2704770B50C460546DA
:10052000012A05D02878800600D5EA69002302E078
:10053000012305E05B1C934202D2E05C0028F9D164
:10054000A869E618C01AA861286A184428622846D3
:10055000FFF7AAFF04E0D5E9012114F8010B904749
:10056000B442F8D32846FFF7B5FF70BD2DE9F0413E
:100570000646002410687529314616A510D0FFF7ED
:10058000BAFF002802DA404213A507E031688A0763
:1005900001D512A502E0490704D511A5012401E007
:1005A000FFF7B2FF00210A2206F1240709E0B0FBA1
:1005B000F2FCB0FBF2F302FB1C003030785418461A
:1005C000491C0028F3D123462A463046BDE8F041B5
:1005D00000F0C7BA000000002D0000002B00000052
:1005E0002000000011680268006A530501D50870F8
:1005F0000AE0D30501D5088006E0130603D5C2172B
:10060000C1E9000200E008600120704701694A1C4E
:1006100002610878704700B58FB0CDE90131002143
:10062000059105497944CDE903101146684600F06B
:1006300029F90FB000BD0000E5FFFFFF0A6802F8CE
:10064000010B0A60704700002DE9FF5F15468A46DE
:100650000446DFF8AC80F8440027D8E900103E4695
:10066000CDE9001010E03AF816106A4602A800F032
:1006700059FD411C07D02178890603D5E269391854
:1006800091420DD80744761C2078800602D5E06997
:10069000B84205DDAE42E6DB3AF816000028E2D1AA
:1006A000A069C01BA0612046FFF7FEFED8E900103C
:1006B000CDE90010002017E03AF818106A4602A8A9
:1006C00000F030FDB0F1FF3F81460BD000250DF169
:1006D000080B05E0D4E901211BF8050090476D1CCB
:1006E0004D45F7D308F10100B0428046E4DB206AB3
:1006F000384420622046FFF7EDFEBDE8FF9F000072
:10070000CE5B00002DE9F0418046D21D22F00702A9
:100710000025D2E90002F52915A614D0011E72F1B8
:10072000000106DA0023D0EB030063EB020211A6FE
:1007300008E0D8F800108B0701D50FA602E04907A2
:1007400001D50EA601251146002408F1240704E076
:1007500000F0C2F930323A55641C50EA0102F7D178
:100760002B46324621464046BDE8F04100F0F9B93B
:10077000000000002D0000002B0000002000000001
:1007800030B4002100F1240408E002F00705D2088B
:10079000303542EA4372DB086554491C52EA0305CE
:1007A000F3D10468002310A2250708D504F0200423
:1007B0000C4304D0C46901230CA2641EC46130BC84
:1007C00000F0CFB910B5044621461068FFF79CFE33
:1007D00002462046BDE810400023D1E7D21D22F09A
:1007E0000701D1E90023CBE7000000003000000042
:1007F000F0B40D460188090502D5214C7C4402E085
:100800001F4C7C440E34002100F1240608E002F065
:100810000F071209E75D42EA03721B097754491C6E
:1008200052EA0307F3D102780023120704D5702D92
:1008300006D009B1022311342246F0BC00F091B970
:1008400001231034F8E770B504460D4621461068C0
:10085000FFF75AFE024629462046BDE870400023B5
:10086000C6E7D21D22F00703D3E90023C0E70368DF
:10087000126843F0200303600823C3610023B7E735
:10088000305A00002DE9F05F894604464FF0000A17
:10089000DFF874B1FB44C0F820A02046E168884727
:1008A000002874D0252806D0D4E901219047206A79
:1008B000401C2062F1E700265F462046E168884739
:1008C0002028054607DB312D05D2781910F8200CB9
:1008D00008B10643F1E7B00701D526F00406C4F8D5
:1008E0001CA00027C4F818A02A2D09D0284603F020
:1008F000D9FF38B304EB8708303DC8F8185019E029
:1009000059F8041B204604EB87029161E16888478F
:10091000012F054618D1E069002820DA26F02006CC
:100920001DE0D8F8180000EB800005EB40003038DF
:10093000C8F818002046E1688847054603F0B2FF72
:100940000028EED1012F0AD02E2D08D12046E168D3
:1009500088477F1C0546022F46F02006C4DBA069AD
:10096000002803DA404246F00106A061F00701D0FA
:1009700026F010066C2D0BD0682D09D04C2D39D0E7
:100980006A2D35D0742D35D07A2D33D016E038E06D
:10099000E1682F4620468847B842054609D16C2FAA
:1009A00026D04FF48060E16806432046884705461C
:1009B00004E06C2F1AD04FF4807006430DB3A5F1FC
:1009C0004100192802D8203546F400664A462946D7
:1009D000204626604E46FFF7E3FB80B101280BD08E
:1009E000F61D26F0070000F1080956E74020E4E76D
:1009F0008020D8E70020D6E706F104094DE7284615
:100A000052E7206ABDE8F09FC05900002DE9F04789
:100A100091460F4680460446002614F8015B2DB12E
:100A200000F052F80068405DC007F6D12B2D02D0CF
:100A30002D2D18D0641E4A463946204600F023FB6F
:100A400027B13968A14201D1C7F800804FF00204F4
:100A500071050BD54042002803DDFFF721FD04603E
:100A6000A007BDE8F08746F48066E4E70028F8DADE
:100A7000FFF716FD04606FF00040F2E74FF0000250
:100A80000429C0F0128010F0030C00F06D83CCF14B
:100A9000040CBCF1020F18BF00F8012BA8BF20F80E
:100AA000022BA1EB0C0100F05FBB5FEAC17C24BF0D
:100AB00000F8012B00F8012B48BF00F8012B70470C
:100AC000004870479804002010B500F097FB001D07
:100AD00010BD00BF2941000030B5B0F10A024FEA55
:100AE000900E71F100034EEA817EB0EB0E0061EBD7
:100AF00091014FEA101E4EEA017E10EB0E0041EB11
:100B000011114FEA102E4EEA016E10EB0E0041EB70
:100B100011214FEA104E4EEA014E10EB0E0041EB50
:100B20001141401841F100014FEAD00040EA417004
:100B30004FEAD10110EB80054FEA810444EA90743A
:100B400044EB01046D1944EB0404521BA3414FF024
:100B5000000348BF0A3200D530BD401C41F10001FE
:100B600030BD2DE9F0470D4699469246044600F106
:100B700024080168880604D5E06921F0100121608D
:100B800000E00120A84201DD471B00E00027A16929
:100B90007A1902EB0900081AA0612078C00602D475
:100BA0002046FFF781FC002608E0D4E901211AF86D
:100BB00006009047206A401C761C20624E45F4DBFC
:100BC0002078C0060AD52046FFF76EFC06E0D4E97F
:100BD000012130209047206A401C2062381EA7F176
:100BE0000107F4DC07E0D4E9012118F8050090477B
:100BF000206A401C2062281EA5F10105F3DC204676
:100C0000FFF768FC2078000602D50220BDE8F087D7
:100C10000120FBE770472DE9FF4F0C461E464FF0C1
:100C2000FF378BB0D2E90001DDF860800A908A4678
:100C3000C1F30A5505B93D46002108464FF00000B2
:100C4000BAF1000F00F4400005DA00EB80004FF429
:100C5000400101EA50004FEA9059B9F1010F00DD5F
:100C6000B9460A9850EA4A000ED044F61050A5F250
:100C7000FF3545432F14B8F1000F1ED07542291ED1
:100C80001EDDC9F100021CE0B8F1010F4FF00000B9
:100C900001D0302103E0F24305E02154401CB04272
:100CA000FBDB30460022002121540B99C1F808805B
:100CB000C1E900200FB0BDE8F08FBD1B6D1CDEE761
:100CC0004A4600DA694206A800F0EAFA06AB93E861
:100CD000070003AB83E8070050460A9900F054FB75
:100CE0008DE80700A0F500501F3800900398002DF4
:100CF00009DD42F21F014A46084403A903906846F1
:100D000000F0B3FD08E0A0F500504A461F3803A9E3
:100D10000390684600F0BDFD8DE807000004000C5C
:100D200003D04FF0FF30410800E01046B8F1000F4B
:100D300003D00022009215461EE0751E05D4FFF771
:100D4000CBFE303262556D1EF9D5B3460122084301
:100D500002D000227F1C04E02078302801D100223C
:100D60007F1E002A099786D01DE0112D07DAFFF7B4
:100D7000B3FE303262556D1C50EA0102F5D10843D2
:100D800002D00098C8B10EE00021681E05E0235C87
:100D9000625C63542254401E491C8142F7DBAB461F
:100DA000A81B401E0990002004F80B000B98099A1C
:100DB000C0F80880C0E9002B7CE711264FF000083E
:100DC00059E72DE9F04F88460446D21D22F007016D
:100DD00091B0D1E90001CDE90A0103F04FFD0246CF
:100DE0000B98C00F01D02D2007E02068810701D5A6
:100DF0002B2002E0202101EAC000032A099001D043
:100E0000072A05DB03464146204600F0FBF90BE1CB
:100E10002078800601D5E06900E00620B8F1650F72
:100E2000814606D0B8F1660F18D0B8F1670F70D1BF
:100E300031E00020B9F1110F009001DB112301E036
:100E400009F101030AAA01A90CA8FFF7E4FEDDE9F4
:100E50000C70002609F10105834647E001204B464E
:100E600000904FF000470AAA01A90CA8FFF7D3FE93
:100E7000DDE90DB00C995D46002610B909F10100BD
:100E80000D18B9EB050003D4C0F1FF3609F10105D7
:100E9000A5EB09002BE0B9F1010F01DA4FF00109D0
:100EA0000020B9F1110F0090484601DD112300E048
:100EB00003460AAA01A90CA8FFF7ADFEDDE90C70F4
:100EC0004D4600268346207800070AD4AB4500DA59
:100ED0005D4601A8012D04DD411911F8011C3029DE
:100EE00007D04F4502DA17F1040F04DA01208246D9
:100EF0000FE06D1EEEE7002F02DCED1B3E4403E029
:100F0000781CA84200DD7D1CB81B00F1010A4FF0DF
:100F100000472078000703D4AA4501DB4FF0FF3AD1
:100F20000021B7F1004F0DF143088DF8431024D094
:100F300002202B23002F01DA7F422D230A21021EDB
:100F4000A0F1010000DC5FB197FBF1FC97FBF1F22F
:100F500001FB1C7C17460CF1300C08F801CDEEE7C4
:100F6000A8F1010003702188090501D5452100E0A1
:100F70006521A0F1010800F8011C09980FA9A1EB57
:100F80000807FF1D00B10120411901EBEA70A169BA
:100F90003844081A401EA0612078C00602D42046BA
:100FA000FFF782FA099828B1D4E901219047206A15
:100FB000401C20622078C00622D52046FFF774FA34
:100FC0001EE0002E04DBB34502DD01A8805D00E0D9
:100FD0003020D4E901219047206A401C2062761C11
:100FE000AAF101005FEA000A0AD100F007F9C0681F
:100FF0000168405CD4E901219047206A401C2062CE
:10100000281EA5F10105DCDC07E0D4E9012118F870
:10101000010B9047206A401C2062381EA7F101078F
:10102000F3DC2046FFF756FA032011B043E610B573
:10103000436913B1AFF3008001E0FFF76EFA0120BE
:1010400010BD127800F124010A7000224A700122BA
:10105000EDE711684FF0FF32E9E710B5436913B1CE
:10106000AFF3008001E0FFF7EFFA012010BD128816
:1010700000F1240182840022C2840122EDE711687C
:101080004FF0FF32E9E72DE9F05F824615468B46C7
:1010900000270AF10104B9460078302801D09DB13B
:1010A00013E014F8010B0127782803D0582801D049
:1010B00045B10AE00DB1102D07D1002714F8010B3E
:1010C000102502E0082500E00A250026B0460EE0C3
:1010D00005FB080005FB06F101271FFA80F801EB6C
:1010E0001046B6F5803F00D3B94614F8010B2946E7
:1010F00000F0C8F80028EBDABBF1000F05D00FB103
:10110000641E00E05446CBF80040B9F1000F06D051
:10111000FFF7C6F902210160C81EBDE8F09F48EA4A
:101120000640FAE770B516460C460546FFF7CCFCBC
:10113000036893F80101012806D0FF2C0FD8185D31
:1011400068B101202C7070BDD3F8070132462146EA
:1011500003F2071303442846BDE8704018474FF0D8
:10116000FF3070BD4FF0000200B51346944696461E
:10117000203922BFA0E80C50A0E80C50B1F12001AA
:10118000BFF4F7AF090728BFA0E80C5048BF0CC058
:101190005DF804EB890028BF40F8042B08BF7047B6
:1011A00048BF20F8022B11F0804F18BF00F8012B28
:1011B00070477546FFF784FCAE4605006946534606
:1011C00020F00700854618B020B5FFF75FF8BDE8AE
:1011D00020404FF000064FF000074FF000084FF09E
:1011E000000B21F00701AC46ACE8C009ACE8C0092F
:1011F000ACE8C009ACE8C0098D46704700487047AC
:10120000B80400202DE9F0411F460446032601687A
:10121000072A01F4006004DB08B116A505E016A555
:1012200003E008B115A500E015A521F0100020602D
:10123000A069C01EA0610FB1401EA0612046FFF74B
:1012400033F94FB1D4E9012138469047206A401C58
:101250002062C01C206206E0206AFAE7D4E901217E
:1012600015F8010B9047761EF8D22046FFF732F9A9
:10127000BDE8F0814E414E006E616E00494E460061
:10128000696E66003A2800D2303820F02002412AE8
:1012900001D3A2F13700884201D34FF0FF307047ED
:1012A0002DE9F047814616468AB0334878440DC888
:1012B0008DE80D0030487844801C03AC0DC884E8EC
:1012C0000D0041F69B300844372190FBF1F290FB72
:1012D000F1F5A5F1800501FB12041B3C02D5644227
:1012E000012000E00020DFF890A080460027FA44AB
:1012F000AAF1BE0A0DE0E00709D03246684607EBC6
:1013000047010AEB810100F0C4FA8DE80700641080
:101310007F1C002CEFD1184F7F44AC3F18E0E8074A
:1013200014D007EB04100DF1180A90E80E008AE8BB
:101330000E00C068F04201D198190890324606A903
:1013400003A800F0A6FA03AB83E807006D10641C45
:10135000002DE4D132466946B8F1000F03A802D04F
:1013600000F083FA01E000F094FAC9E90001C9F83D
:1013700008200AB0BDE8F087385000000446AFF3FB
:1013800000802046FEF76FFF5FEA400C08BF91F037
:10139000000F4FEA8C234FEAC12243EA51514FEA32
:1013A0001C5018BF00F5F0404FEA300018BF41F064
:1013B00000415FEA6C5C00F02980BCF1FF3F08BF90
:1013C00040F080407047130C06BF12044FF0100C21
:1013D0004FF0000C130E04BF12020CF1080C130F97
:1013E00004BF12010CF1040C930F04BF92000CF126
:1013F000020CD30F04BF52000CF1010C11464FF048
:101400000002A0F11F00A0EB0C00704711F0004F8C
:1014100008BF704731F000413FF4D5AF0B0C06BF59
:1014200009044FF0100C4FF0000C0B0E04BF090222
:101430000CF1080C0B0F04BF09010CF1040C8B0F0D
:1014400004BF89000CF1020CCB0F04BF49000CF162
:10145000010CCCF12003A0EB0C0022FA03F302FAFA
:101460000CF241EA030100F10100704720F07F4CCB
:1014700080EA030023F07F47ACEB070303F57C53BE
:1014800000F0004003F1FF032DE980494FEA154BBE
:1014900009B44FEA144325EA0B4E24EA03480FF23D
:1014A000042606EB132749083E785FEA320203FB65
:1014B0000667C7F5000707FB06F64FEA54374FEA01
:1014C000D64606F1020607FB066CCCF1005C4FEA3B
:1014D0001C472CEA074C07FB06F40CFB06F504EB53
:1014E00015464FEA961634BF00204FF000404FEAF1
:1014F000D13706FB07FC4FEA1C4C0CFB0BF7D21B49
:1015000003FB0CF761EB07010CFB0EF7B0EB074098
:1015100072EB17420CFB08F734BFA2EB0742B2EBA9
:10152000074261EB17414FEA0C444FEA910706FB73
:1015300007FC4FEA1C4C0CFB0BF7B0EBC74072EBFF
:10154000573203FB0CF734BFA2EBC742B2EBC742E2
:1015500061EB57310CFB0EF7B0EBC70072EB577223
:101560000CFB08F734BFA2EBC702B2EBC70261EB7A
:101570005771039F4FEA816141EA921104EBCC0459
:101580004FEAD1374FEA826206FB07FC42EA90122B
:101590004FEA80604FEA1C4C0CFB0BF7D21B03FB9D
:1015A0000CF761EB07010CFB0EF7B0EB074072EB99
:1015B00017420CFB08F734BFA2EB0742B2EB07421D
:1015C00061EB17414FEA8C554FEA910704EB9C24DD
:1015D00006FB07FC4FEA1C4C0CFB0BF7B0EBC740BB
:1015E00072EB573203FB0CF734BFA2EBC742B2EBEE
:1015F000C74261EB57310CFB0EF7B0EBC70072EB43
:1016000057720CFB08F734BFA2EBC702B2EBC7025C
:1016100061EB577115EB4C254FEA816141EA92115C
:101620004FEA82624FEAD13742EA901206FB07FC8A
:1016300044F100044FEA80604FEA1C4C0CFB0BF7AE
:10164000D21B03FB0CF761EB07010CFB0EF7B0EBB1
:10165000074072EB17420CFB08F734BFA2EB0742BE
:10166000B2EB074261EB174115EB1C154FEA8131D4
:1016700041EA92414FEA823242EA90424FEA803098
:101680004FEA0C7644F1000448EA03434EEA0B4863
:101690004FF0000EB2EB080C71EB030724BF62465B
:1016A00039464EEB0E0E4FF0000B001852414941E7
:1016B0004BEB0B0BB2EB080C71EB03077BF1000B50
:1016C00024BF624639464EEB0E0E4FF0000B001859
:1016D000524149414BEB0B0BB2EB080C71EB03078A
:1016E0007BF1000B24BF624639464EEB0E0E51EAE9
:1016F000020718BF46F0010616EB0E7655F1000200
:1017000054F1000103D5BDE88901BDE80088BDE8BA
:101710008901BDE80048B619524141EB0101A3F12E
:101720000103704780807F7E7D7C7B7A7978777635
:1017300076757473727171706F6E6E6D6C6C6B6AAE
:101740006A6968686766666564646363626161604C
:10175000605F5F5E5E5D5D5C5C5B5B5A5A595958C9
:101760005857575656555555545453535252525133
:10177000515050504F4F4F4E4E4D4D4D4C4C4C4B89
:101780004B4B4A4A4A4949494848484747474746D0
:10179000464645454544444444434343434242420C
:1017A00042414141002B26D4770021D01CB54FEA9D
:1017B000370703B44FF010004FF010014FF0000056
:1017C0000FBCBDE810400BF1010BBBF1010F08BFCE
:1017D0005FEA170722BF12F1010211F101014FF078
:1017E000004143F1000300F0004043EA000070476D
:1017F000F9D35708DAE746EA064613F1400F4FEAF5
:1018000016461FDD13F1200FDFBF16430A460021E5
:1018100020335B42C8D0C3F1200746EA064602FAED
:1018200007F74FEA164646EA0706C3F1200722FAF1
:1018300003F201FA07F721FA03F14FF0000342EA3D
:101840000702B1E746EA020646EA06464FEA1646AE
:1018500046EA0106BCBF46EA0646360C4FF00003D6
:101860004FF000024FF000019EE72DE9C04893467B
:1018700030B491E8380007C831EA400C48BF34EA78
:10188000430C03D5FFF7F2FDFFF78CFFF0BCBDE87A
:1018900000882DE9C048934630B491E8380007C865
:1018A00010F0804F08BF13F0804F03D100F005F80F
:1018B000FFF778FFF0BCBDE8008820F07F4780EAA2
:1018C000030023F07F4C07EB0C03A3F57C5300F0DF
:1018D0000040A3F1FE0392F0000F00F0B38095F0FA
:1018E000000F00F077802DE901494FEA11404FEADF
:1018F000144621EA004800FB06FC24EA064708FBE0
:1019000006F607FB08F800FB07F718EB06484CEB58
:10191000164C4FEA124B18EB07484FEA15464CEBB2
:10192000174022EA0B4E0BFB06FC25EA06470EFB8E
:1019300006F607FB0EFE0BFB07F71EEB064E4CEB05
:10194000164C4FF000061EEB074E4CEB174B18EBF6
:101950000B0840F1000018EB0E0B58EB000840F1AB
:1019600000008F1A4FF000013CBFC943661B14BF33
:10197000B5EB040C00213CBFC943F61B4FEA1744EA
:101980004EEA8E0E27EA04454FEA1C4704FB076225
:101990002CEA074C05FB07F70CFB05F604FB0CFCD7
:1019A00016EB074642EB174216EB0C4642EB1C4285
:1019B0001BEB060658EB0202414146EA9E0601D5A2
:1019C000BDE80189B619524141EB0101A3F10103C0
:1019D000BDE801894FEA14454FEA114724EA05465C
:1019E00021EA074C05FB07F406FB07F70CFB06F1A1
:1019F00005FB0CFC11EB074144EB17444FEA12477F
:101A000011EB0C4144EB1C4422EA074C05FB07F2A6
:101A100006FB07F70CFB06F605FB0CFC16EB07466E
:101A200042EB174216EB0C4642EB1C456A1854F188
:101A3000000148BF7047B619524141EB0101A3F1C3
:101A40000103704795F0000F37D04FEA11424FEA7B
:101A5000144721EA024624EA074C02FB07F106FB81
:101A600007F70CFB06F402FB0CFC14EB074441EBFC
:101A700017414FEA154714EB0C4441EB1C4125EA92
:101A8000074C02FB07F506FB07F70CFB06F602FB0B
:101A90000CFC16EB074645EB174516EB0C4645EBE1
:101AA0001C42121951F1000148BF7047B61952414A
:101AB00041EB0101A3F1010370474FEA14454FEADE
:101AC000114724EA054621EA074C05FB07F106FB0E
:101AD00007F70CFB06F24FF0000605FB0CFC12EBBF
:101AE000074241EB174112EB0C4251EB1C4148BF3E
:101AF0007047921841EB0101A3F1010370470146C1
:101B0000B42000EB810081B2C1F5E15080B2704792
:101B100010B51848007801282BD11748006840BB41
:101B20001648008840F004001449088008460088E0
:101B300040F0400008800020114908800D490870DD
:101B40000E481438008840F080000C491439088091
:101B50000A482430008840F40040084924310880B5
:101B60000120084908600849C1F88001042001F0FB
:101B700095FA10BD2400002030812142202C014024
:101B80002600002094012142008021420146CAB271
:101B90000B1243EA022070470348002101604160B4
:101BA0000181817270470000AC03002008B500205D
:101BB000009022E19748008800F00F0096490870D5
:101BC0000846007800287CD1944800689449088031
:101BD0000846008800F0300092490880904800884C
:101BE00000F440508E4908808C4909684BF6BF725A
:101BF00001EA020080F4005080F0200040F400412F
:101C000041F08001854A11608248008800F0100090
:101C100090BB1046006848F60F71084011460860F6
:101C200000F02AFC7D4909684BF6BF7201EA020008
:101C30007B49098801F4805109B180F480507849CA
:101C4000098801F4005109B180F4005075490988F0
:101C500001F0100109B180F010007249098801F00B
:101C6000200109B180F0200081B241F4004141F02F
:101C700080016A4A116008BDFFE76848006880B2C9
:101C80000090BDF8000000F40060B0B36348006845
:101C9000C0F30E0048F68F7108406049086001F0FB
:101CA00011FA5E4909684BF6BF7201EA02005C490D
:101CB000098801F4805109B180F48050584909889D
:101CC00000E056E001F4005109B180F4005055499C
:101CD000098801F0100109B180F01000514909880C
:101CE00001F0200109B180F0200081B241F40041EF
:101CF00041F08001494A1160BDE7FFE7BDF80000EF
:101D000000F40040002878D044480068C0F30E007A
:101D100048F68F7108404149086000F06FFD3F4967
:101D200009684BF6BF7201EA02003D49098801F4D7
:101D3000805109B180F480503949098801F400517B
:101D400009B180F400503749098801F0100109B148
:101D500080F010003349098801F0200109B180F0BA
:101D6000200081B241F4004141F080012B4A116012
:101D700081E7294800782C4901EB8000D0F8000C5D
:101D800080B20090BDF8000000F40040C0B12248CD
:101D9000007801EB8000D0F8000CC0F30E0048F68C
:101DA0008F7108401C4909781F4A02EB8101C1F874
:101DB000000C19490978491E1C4A52F82100804735
:101DC000BDF8000000F08000B8B113480078164953
:101DD00001EB8000D0F8000C48F60F7108400E4966
:101DE0000978114A02EB8101C1F8000C0A4909780F
:101DF000491E0F4A52F821008047084844300068C5
:101E000080B20449088000F4004000287FF4D2AE7C
:101E100000BF30E77000002038000020005C004068
:101E20004C0000204E000020005000409800002090
:101E30007C0000200B4A02EB8001D1F8001C01F469
:101E4000804171B102EB8001D1F8001C48F68F721D
:101E500011404CF280021143024B03EB8002C2F8A6
:101E6000001C7047005000400B4A02EB8001D1F883
:101E7000001C01F0400171B102EB8001D1F8001C9F
:101E800048F68F72114048F2C0021143024B03EB37
:101E90008002C2F8001C704700500040084A02EB64
:101EA0008001D1F8001C48F68F62114048F2800290
:101EB0001143034B03EB8002C2F8001C7047000083
:101EC000005000402DE9F0472848006800F1100557
:101ED0002E8826480068077AD6B9042F18D12448DE
:101EE000007801280FD100212248006880B2801CB0
:101EF000214A42F8101030202049088000BF0020FD
:101F00001B49087003E0072710201C49088027E0C0
:101F1000AC88A64201D8042000E002200746B44263
:101F200000D93446A0B2A96888478046002000F056
:101F300045FA8146A2B24946404602F0B5FAA1B23E
:101F4000002000F0D1FF2888001B288068882044EA
:101F5000688030200949088000020949088000BFD4
:101F6000024909680F72BDE8F08700003C000020BC
:101F700034000020505C0040006000404E00002013
:101F80004C0000202DE9F0412848006800F11004C1
:101F90002688A068C0B1BEB1A588B54200D9354633
:101FA000A8B2A168884707462088401B2080608827
:101FB00028446080002000F0DFF98046AAB2414644
:101FC000384600F043FC00BF208850B14FF4405029
:101FD000174908800021084600F086FF3020154987
:101FE00008802088A188884204DB03200F49096803
:101FF000087218E02088002804DD05200B490968D4
:10200000087210E0208870B9062008490968087233
:1020100000210948006880B2801C084A42F810106C
:10202000302004490880BDE8F08100003C00002019
:102030004C0000204E000020505C0040006000403A
:102040002DE9F84F9B48006845780027BA46062DD1
:102050001BD198480068007800F07F00002813D159
:10206000944909688878012803D193490968CF69A0
:102070000AE0022803D1904909680F6A04E00328A6
:1020800002D18D4909684F6A94E0002D64D18948D6
:102090000068408800285FD186480068C088022810
:1020A0005AD1844800680079002855D181480068D9
:1020B000007800F07F0028B97E480068808808B961
:1020C0007E4F77E07B480068007800F07F000128B1
:1020D00010D1784909684879774909688A690021E7
:1020E0009047002866D173480068807A002861D044
:1020F000724F5FE06F480068007800F07F000228B0
:1021000058D16C480068407900F00F0669480068B3
:10211000407900F0700967480068407900F080005D
:1021200038B1674901EB8600D0F8000C00F03008A8
:1021300006E0634901EB8600D0F8000C00F440583B
:1021400060480078B04235D9B9F1000F32D1B8F10A
:10215000000F2FD0594F2DE0082D07D155480068AA
:10216000007800F07F0028BB574F23E00A2D21D1D3
:1021700050480068007800F07F0001281AD14D48CF
:102180000068807AB0B14B480068408890B94948EF
:102190000068007970B947480068C088012809D1F3
:1021A000444909684879444909688A690021904787
:1021B00000B9464F57B13F480068A0F812A03D480B
:1021C000006887610020B84700240FE0394A126890
:1021D0005078394A1268116988470446032C05D1A2
:1021E0000920344909680872BDE8F88F3148006851
:1021F000008A4FF6FF71884204D109202D490968F1
:102200000872F1E7022C03D02A480068008A20B93E
:102210000820284909680872E6E72648006800781F
:1022200000F08000E0B323480068C0880090214897
:102230000068008A0099884204D91E4900980968FC
:10224000088223E01B480068008A1A490968C98887
:1022500088421BDA17480068008A1749096891F814
:102260002C10884203DA0020194908700EE011484A
:102270000068008A1049096891F82C1090FBF1F26F
:1022800001FB120010B90120114908700A480068CA
:1022900090F82C10074800688182FFF713FE07E0D2
:1022A000FFE7032003490968087200030949088011
:1022B00000BF99E73C00002040000020B533000833
:1022C00000500040C0000020393300088933000866
:1022D000340000204C00002070B51B48408C1A4987
:1022E000098C884200D170BD1748408C1649098C72
:1022F000884206DA1448008C1349498C401A84B28B
:1023000004E01148408CC0F1200084B2402C00DD74
:1023100040240D48458C408C20440B494884084695
:10232000408C202801DB00204884074948192246B8
:10233000C02102F0B9F82146012000F0D5FD0120AE
:1023400000F000FE00BFCEE7D403002010B5064920
:10235000032002F03FF884B2E1B2034802F052F8E1
:10236000032000F097FD10BD380400200320014930
:10237000086070474801002001460548006880B2A7
:1023800000EBC100001D034A32F8100080B2704714
:10239000505C00400060004001460648006880B282
:1023A00000EBC100801D044A32F81000C0F30900A0
:1023B00070470000505C0040006000400146054846
:1023C000006880B200EBC100034A32F8100080B20E
:1023D00070470000505C00400060004004480079F5
:1023E00010B10348407908B9002070470120FCE78C
:1023F000100000200148807870470000AC030020E6
:1024000070B50A480468001D0568001D066834445C
:1024100054B108220649204600F066F80422044917
:102420001031284600F060F870BD0000E8F7FF1F8B
:1024300054000020024908780021014A11707047B9
:102440002E0000200148007870470000290000207D
:102450000148807970470000100000200249087888
:102460000021014A117070472800002001480078BF
:10247000704700002300002010B518480068047A57
:10248000022C01D0042C05D1FFF71CFD1348006875
:10249000047A1CE0062C19D1104800684078052801
:1024A0000ED10E480068007800F07F0040B90B495B
:1024B0000968C87800F06EFC09490968086A804715
:1024C0000849096888688047082400E0082403490F
:1024D00009680C7200F0CEF910BD00003C0000202D
:1024E000480000204000002030B50B46002100BF0E
:1024F00016E00A24B4EB107F05D9302404EB1074E5
:1025000003F8114005E0412404EB10740A3C03F881
:102510001140000100254C00641C1D554C1CE1B20B
:102520009142E6DB30BD00001348806940F00400B2
:10253000114988610846806940F0100088610F48A1
:10254000006820F0F0000D4908600846006840F07F
:10255000300008600A48406820F47000084948606C
:102560000846406840F4401048600846C06840F49F
:102570000050C8607047000000100240040801408D
:10258000001001400548817A19B10521044A116003
:1025900002E00121024A116070470000B8030020E8
:1025A0004801002000B5002015490861C8601420CA
:1025B000486100208861C8610846006840F0010059
:1025C0000860084640680F4908400D4948600846C1
:1025D00000680D4908400A4908600846006820F470
:1025E000802008600846406820F4FE004860002013
:1025F000886000214FF0006000F058F800BD000036
:10260000001002400000FFF8FFFFF6FE2DE9F04148
:102610000746884614461D46284600F033F8C5F1A3
:10262000040007FA00F60F20284100EA08000643DC
:1026300006F00F06E21704EBD2625211920002F18B
:10264000E022D2F800212146E31704EBD3635B11AB
:10265000A4EB431C012303FA0CF31A432046E317AF
:1026600004EBD3635B119B0003F1E023C3F800216B
:102670000348005D40EA061001490855BDE8F081B5
:1026800000E400E00146072323EA01021202054BA1
:1026900018684FF6FF031840034B18431043014BD3
:1026A000186070470CED00E00000FA05024A0A408D
:1026B0000243024B1A60704780FFFF1F08ED00E0E5
:1026C0007047000070B502264748006844784648C5
:1026D0000068007800F07F00002844D1092C03D165
:1026E00000F0E8FE06465FE0052C14D13E48006885
:1026F000C0787F280BDC3C480068807838B93A48BD
:102700000068808818B938480068807A08B10825C0
:1027100065E0002648E0032C0ED133480068C078FD
:10272000012807D130480068808818B900F0E6FE1B
:10273000064639E0022637E0012C35D12A480068E8
:10274000C07801280DD128480068808848B92648FB
:102750000068407A00F0200018B100F037FD06460E
:1027600022E0022620E020480068007800F07F0088
:10277000012805D10B2C17D100F03CFF064613E0D1
:1027800019480068007800F07F0002280BD1012C66
:1027900003D100F01BFD064606E0032C04D100F037
:1027A000C1FE064600E002264EB1E0B20F4A1268B2
:1027B000516988470646032E01D109250FE00EB165
:1027C00008250CE0062500210948006880B2801C1D
:1027D000084A42F8101030200749088000BF02491B
:1027E00009680D7270BD00003C0000204000002010
:1027F000505C0040006000404E00002010B51148C1
:102800000068047A022C01D0042C01D1082412E0C3
:10281000032C01D0052C05D1FFF7B4FB0948006853
:10282000047A08E0072C05D107490968C868804781
:10283000082400E00824034909680C7200F01AF823
:1028400010BD00003C00002040000020F0B5561CE8
:102850007510074E06EB41042B4605E034F8047B67
:1028600020F8017B401C5B1E002BF7D1F0BD00005F
:102870000060004010B50D4890F82C10002000F0CA
:10288000C3FA0B480068007A082805D140020949BC
:10289000088010200849088005480068007A092847
:1028A00001D1012010BD0020FCE70000C400002081
:1028B0003C0000204C0000204E00002010B50120FC
:1028C00001F01EFC01240B48046000200A49088026
:1028D00008460088074908600020091D08604FF479
:1028E000E050054908800846008802490860002039
:1028F00010BD0000405C0040460000207CB505464D
:102900000C46002000900190062C79DC22462946D6
:102910006846FDF756FD4DA16846FDF77DFD08B9F7
:1029200000207CBD4AA16846FDF776FD08B902206B
:10293000F7E748A16846FDF76FFD08B90120F0E709
:1029400045A16846FDF768FD08B90320E9E743A102
:102950006846FDF761FD08B90520E2E740A1684639
:10296000FDF75AFD08B90420DBE73EA16846FDF7F4
:1029700053FD08B90720D4E73BA16846FDF74CFD9D
:1029800008B90620CDE739A16846FDF745FD08B92D
:102990000A20C6E736A16846FDF73EFD08B90920C2
:1029A000BFE734A16846FDF737FD08B90820B8E74E
:1029B00031A16846FDF730FD08B90B20B1E72FA122
:1029C0006846FDF729FD08B90C20AAE72CA1684646
:1029D000FDF722FD08B90D20A3E7032229A16846CF
:1029E000FDF7A4FCB0B90DF10300FDF773FC264917
:1029F000086008460068642803DD6420086007E07A
:102A000022E021480068002802DA00201E49086000
:102A10000E2086E71DA16846FDF7FEFC38B90020B0
:102A20001B498871042000F039FB0F2079E719A1B8
:102A30006846FDF7F1FC38B901201549887103207B
:102A400000F02CFB10206CE711206AE741300000F9
:102A50004131000041480000423000004231000096
:102A600042480000412B0000412D0000412B2B006B
:102A7000422B0000422D0000422B2B00412D2D0047
:102A8000422D2D004C454400180000204C530000FE
:102A9000100000204853000001460E4880780028AE
:102AA00016DD0C480278C01C805C0870094A127858
:102AB000501CC21700EB5272D210A0EBC202054BA1
:102AC0001A7018468078401E1A4690700120704790
:102AD0000020FCE7AC03002070B50546072D01D0AF
:102AE0002E4805702D48007808284ED2DFE800F007
:102AF00004111A202B384E4F2948006828B900F0DD
:102B000053F806202549087002E005202349087083
:102B100041E000F049F804202049087001202049D4
:102B2000086038E002201D4948700320087032E038
:102B30001A484078401E194948700846407808B93C
:102B40000420087027E01748006884B244F010049D
:102B5000144804600520114908700A2048701AE0E2
:102B60000E484078401E0D4948700846407858B9D4
:102B70000C48006884B224F010040A48046006205F
:102B8000087000200649086005E000BF00BF06206D
:102B90000249087000BF00BF70BD00004D01002059
:102BA00050010020405C004010B50748006884B226
:102BB00024F0040404480460FFF7E4FC4FF43F40B1
:102BC0000149086010BD0000405C0040024800213F
:102BD00001604160704700001000002001460E298E
:102BE0007AD2DFE801F0070F0B131B17311F554393
:102BF000678C7A9E0020564A1071A5E00120544A45
:102C00001071A1E00220524A10719DE00020504A4C
:102C1000507199E001204E4A507195E002204C4AD3
:102C2000507191E04A48408808B1012070474848F7
:102C3000B0F900005A30B42290FBF2F302FB13000B
:102C400000B2434A10807FE04148408808B101202B
:102C5000ECE73F48B0F900005A38B42290FBF2F399
:102C600002FB130000B23A4A10806DE03848008839
:102C700008B10120DAE73648B0F902005A30B42230
:102C800090FBF2F302FB130000B2314A50805BE08C
:102C90002F48008808B10120C8E72D48B0F902008C
:102CA0005A30B42290FBF2F302FB130000B2284A20
:102CB000508049E02648408808B10120B6E7244802
:102CC000B0F90000B430B42290FBF2F302FB130021
:102CD00000B21F4A108037E035E01D48408808B137
:102CE0000120A3E71A48B0F90000B438B42290FBE1
:102CF000F2F302FB130000B2154A108024E01448DE
:102D0000008808B1012091E71148B0F90200B43001
:102D1000B42290FBF2F302FB130000B20C4A508085
:102D200012E00B48008808B101207FE70848B0F99D
:102D30000200B438B42290FBF2F302FB130000B29D
:102D4000034A508000E000BF00BF00206EE7000093
:102D50001000002010B50948006805280CD108486B
:102D600001680068401C064A1060052904D1002053
:102D700011460860FFF7B0FA10BD000048010020BE
:102D80006C0000204FF6F8710140014A1160704755
:102D9000505C004030B501460F4B1A78002014E01B
:102DA00003060E4C04EB9353D3F8003C48F68F74A3
:102DB000234048F280042343C4B223430406074D52
:102DC00005EB9454C4F8003C401C9042E8D341F019
:102DD0008003034C236030BDC00000200050004041
:102DE0004C5C004010B54A105300054A126892B27C
:102DF00002EBC002121D034C44F8123010BD00005B
:102E0000505C00400060004010B502460F4800686A
:102E100080B200EBC200801D0D4C04EB40033E2944
:102E20000BDD481101F01F040CB9441EA0B24FF491
:102E3000004444EA80241C6007E0481001F00104CB
:102E40000CB1441CA0B284021C6010BD505C004058
:102E50000060004030B50E4C04EB8003D3F8003C1A
:102E60004BF68F7403EA040201F480530BB182F431
:102E7000805201F400530BB182F4005242F400433B
:102E800043F08003024D05EB8004C4F8003C30BDE4
:102E90000050004010B50B4B03EB8002D2F8002C21
:102EA0004BF68F7302EA030181F4805181F40051E3
:102EB00041F4004242F08002024C04EB8003C3F86C
:102EC000002C10BD0050004010B54A105200044BB9
:102ED0001B689BB203EBC003024C44F8132010BDE7
:102EE000505C004000600040044A126892B202EB5D
:102EF000C002921C024B43F812107047505C004015
:102F00000060004030B50E4C04EB8003D3F8003C69
:102F100048F6BF7403EA040201F010030BB182F01B
:102F2000100201F020030BB182F0200242F40043B2
:102F300043F08003024D05EB8004C4F8003C30BD33
:102F40000050004010B50B4B03EB8002D2F8002C70
:102F500048F6BF7302EA030181F0100181F02001FD
:102F600041F4004242F08002024C04EB8003C3F8BB
:102F7000002C10BD0050004010B5074B03EB800241
:102F8000D2F8002C48F68F131A400A43024C04EB87
:102F90008003C3F8002C10BD005000402DE9F0471D
:102FA000064600BF4FF08040008800F00100002876
:102FB000F8D11E48008800F0FE001C490880080572
:102FC000008A20F0010009050882184810300088A6
:102FD00020F00100154910310880002E24DD13482F
:102FE0002C300488304601F017FF8246104901F06A
:102FF00031FE8046204601F00FFF8146414601F038
:103000001FFF074601F0E8FE85B2A54201DB601E06
:1030100085B205B901254FF08040858503480088B9
:1030200040F0010001490880BDE8F087000400403D
:103030000000C842412902D0422906D102E0104ACC
:10304000107002E00F4A107000BF00BF0C4A1278E7
:103050000D4B1B789A4205D10A4A12780B4B1B780C
:103060009A4209D00A4A128842F00102084B1A809B
:103070000122084B1A7002E00122074B1A707047B8
:103080002C0000202D0000202A0000202B00002012
:103090000C080040290000202E0000200149087083
:1030A000704700002F0000200548406820F4800091
:1030B000034948600846C06940F40000C861704791
:1030C0000010024038B501242948006880B2001D74
:1030D000284931F8100080B201EB400000902648EA
:1030E0000068007A092832D00098007822490968DF
:1030F00008700098401C0090009800781E490968EC
:1031000048700098401C0090009800EB440000902C
:10311000009931F8020B0091FEF738FD1649096855
:103120004880009800EB44000090009931F8020BB1
:103130000091FEF72BFD104909688880009800EB8C
:1031400044000090009800880B490968C88001205D
:1031500009490968087208480068C08810B9FFF773
:10316000B1FA01E0FEF76CFFFFF784FB38BD000009
:10317000505C0040006000403C0000202DE9F0471A
:1031800006460F4642F2107090FBF6F0401E84B2E5
:10319000204601F041FE8146394601F051FE80464D
:1031A00001F01AFE85B2A54201DB601E85B205B9A9
:1031B000012541F61F41204600F080FD41F61F41E8
:1031C000284600F041FDBDE8F08700002DE9F047FA
:1031D00054480068007800F07F08B8F1000F0AD169
:1031E00050480068407A00F0DF004E490968487294
:1031F0000020BDE8F087B8F1020F7CD14948006893
:10320000408818B947480068007908B10220F0E703
:10321000DFF8149143480068477927F080052C4671
:1032200040480068407900F0800038B13F4901EB28
:103230008400D0F8000C00F0300606E03B4901EBBA
:103240008400D0F8000C00F4405699F80000A84221
:1032500004D91EB133480068807A08B90220C8E753
:1032600007F0800080B1314901EB8400D0F8000CF8
:1032700000F0300010284BD1E0B2FEF7F5FDE0B2CF
:103280003021FFF73FFE43E0284901EB8400D0F8EE
:10329000000C00F44050B0F5805F39D1E4B9244A05
:1032A00092F82C10E0B2FFF7AFFD204A02EB840148
:1032B000D1F8001C4BF68F7201EA020080F48050B6
:1032C00080F4005040F4004141F08001174B03EBC3
:1032D0008402C2F8001C1BE0E0B2FEF7ABFD134A0B
:1032E00002EB8401D1F8001C4BF68F7201EA020058
:1032F00080F4805000E011E080F4005040F4004180
:1033000041F08001094B03EB8402C2F8001C00BFAE
:10331000084909684869804700206AE700BF022021
:1033200067E700003C000020C00000200050004083
:10333000C40000204800002010B504462CB901202C
:10334000064909680882002010BD05490968086817
:103350008047024800680A30F6E700003C00002081
:103360004800002010B5024606480068438A32B97A
:103370008888C01A034C24682082002010BD086889
:103380001844FBE73C00002010B504462CB901208E
:10339000064909680882002010BD05490968886847
:1033A0008047024800680C30F6E700003C0000202F
:1033B0004800002010B504462CB90220394909689C
:1033C0000882002010BD0020374908803548006879
:1033D000007800F07F0018BB32490968487A00F095
:1033E000200131B13049097841F002012E4A1170B3
:1033F00005E02D49097801F0FD012B4A117000F01C
:10340000400131B12849097841F00101264A117083
:1034100005E02549097801F0FE01234A11703AE0E0
:1034200020480068007800F07F00012801D11E4884
:10343000C8E71C480068007800F07F00022828D107
:10344000184A1268517901F00F0001F080027AB138
:10345000164B03EB8002D2F8002C02F03002102A47
:1034600016D1114A127842F001020F4B1A700FE088
:103470000E4B03EB8002D2F8002C02F44052B2F55E
:10348000805F05D1084A127842F00102064B1A709B
:1034900001E0002096E7064909680869804702486C
:1034A00090E700003C000020320000200050004067
:1034B0004800002010B50E480068C0780D494978D2
:1034C000884213DC0A480068807878B908480068A8
:1034D000808858B906480068C0780549096888722C
:1034E0000549096848688047002010BD0220FCE7B4
:1034F0003C000020C00000204800002010B5074814
:103500000068407A40F02000044909684872044984
:103510000968C8698047002010BD00003C000020F9
:10352000480000202DE9F0412E480068467926F039
:1035300080073C462B480068407900F0800038B195
:10354000294901EB8400D0F8000C00F0300506E0BA
:10355000254901EB8400D0F8000C00F440552348C5
:103560000078A04208D91F480068408820B91DB1E2
:103570001C480068807A10B90220BDE8F08106F08E
:103580008000A0B1184A02EB8401D1F8001C48F673
:10359000BF7201EA020080F0100040F4004141F0E7
:1035A0008001114B03EB8402C2F8001C14E00E4AA8
:1035B00002EB8401D1F8001C4BF68F7201EA020085
:1035C00080F4805040F4004141F08001064B03EB51
:1035D0008402C2F8001C00BF054909688869804759
:1035E0000020CAE73C00002000500040C00000203E
:1035F0004800002010B5174B1B68D978154B1B6885
:103600005879154B1B689A69904704461148006821
:10361000807AE8B13CB90F480068007918B90D48C4
:103620000068807808B1022010BD8CB90B49096888
:10363000C868804707480068407906490968C87229
:1036400004480068C0780349096808730020EBE764
:103650000220E9E73C000020400000204800002054
:1036600010B55948806940F40060574988610846A0
:10367000806940F0040088610846806940F00800D5
:10368000886152480068524908405049086008461D
:103690000068504908434D4908604F48006820F0D1
:1036A0000F004D4908600846006840F003000860BC
:1036B000081D0068494908404749091D0860084637
:1036C0000068474908434449091D086001204549ED
:1036D00008804720091F088042482038008840F0B1
:1036E00001004049203908800846008840F08000E9
:1036F0000880081D008820F00100091D0880802036
:1037000038492C39088037481438008840F0700058
:103710003449143908800846008840F008000880C1
:1037200030480C38008840F004002E490C390880DD
:103730002C481438008840F4E0402A4914390880A5
:103740000846008840F40060088026480C3800884D
:1037500040F0400023490C3908800223192201213E
:103760000846FEF753FF0223182201210846FEF700
:103770004DFF00201B4908310880091D08800120E9
:103780001849088017481830008840F4005015493F
:103790001831088000BF13481830008840F480506A
:1037A00010491831088000BF0E481830008840F4D6
:1037B00000400C491831088000BF01200A49086008
:1037C0000A49C1F8800110BD001002400008014004
:1037D000FFFF000FFFFF333F000C0140FFFF00F031
:1037E0000000B40B2C2C01409401214200802142A6
:1037F00070B504460D46FEF72BFE98B9FEF7EEFDB8
:10380000012807D127482849086040F2F5102749C8
:1038100008801EE026482449086040F2F51023493C
:10382000088016E0FEF714FE012812D1FEF7D6FD3F
:10383000012807D11E481C49086040F2F5101B49B9
:10384000088006E01B481849086040F2F510174947
:10385000088019480570412D02D0422D07D102E0A1
:103860001648046003E015480C30046000BF00BF38
:10387000012001F041F80020114908804FF47A70CE
:103880001049088000200F49083908800D482C385D
:10389000008840F001000B492C39088001200A49BA
:1038A000087070BDD05100081C00002020000020CE
:1038B000AE5700088C5D00082200002090012142D4
:1038C000260000202C2C01402300002070B5044667
:1038D0000D46FEF7BDFD88B9FEF780FD012806D133
:1038E000254826490860FA20254908801BE025481C
:1038F00022490860FA202249088014E0FEF7A8FD5A
:10390000012810D1FEF76AFD012806D11D481B4988
:103910000860FA201A49088005E01B48174908602A
:10392000FA201749088019480570412D02D0422D10
:1039300007D102E01648046003E015480C3004602B
:1039400000BF00BF012000F0D7FF00201149088010
:1039500001201149088000200F49083908800E48CD
:103960002C38008840F001000B492C3908800120D8
:103970000A49087070BD0000DC4F00081C000020E0
:1039800020000020BA550008985B000822000020A3
:1039900090012142260000202C2C01402300002011
:1039A00030B504460025FEF7FDFD1F48006840F4D1
:1039B00080301D49086000BF1B480068400C00288B
:1039C000FAD04FF4806018494860A01EC4B208467F
:1039D000406840EA844048600846406840F48030CF
:1039E00048601248006840F03200104908600E48F4
:1039F000006840F080700C49086000BF0A48006809
:103A0000400E0028FAD00848406840F002000649FD
:103A1000486005E004484068C0F3870505F00305E9
:103A2000022DF7D130BD00000010024000200240FE
:103A300038B50025002000902148006884B200BFFE
:103A400009E0204901EB8500D0F8000C80B21E4946
:103A500041F825006D1C082DF3D344F48064184808
:103A6000046044F00104046024F00104046000BF19
:103A70001348001D006800F480600028F8D04FF65D
:103A8000FF300F49091D0860002509E00E4850F875
:103A9000250080B20B4A02EB8501C1F8000C6D1CB9
:103AA000082DF3D344F0080405480460006884B28C
:103AB00044F0040402480460FEF758FC38BD0000DE
:103AC000405C004000500040780400201D48008801
:103AD00000F08000A0B300201B4908601B49C1F81A
:103AE000800101201A49087016481030008820F023
:103AF00004001449103108800846008820F0400076
:103B000008801048001F008820F080000D49091F20
:103B100008800C481038008800F0FE000949103970
:103B2000088008481C3000880649143108800020AD
:103B3000084908700348008820F080000149088087
:103B400070470000102C0140940121420080214266
:103B500024000020230000202748008800F00100F6
:103B6000002848D02548008825490988884226DA57
:103B7000244800682149098830F811001E491C3189
:103B8000088021480078412802D0422810D107E05F
:103B900019481C300088401017492431088007E07C
:103BA00015481C300088401013492831088000BF98
:103BB00000BF12480088401C1049088015E0002012
:103BC0000D4924310880091D08800C4908800A48E5
:103BD0001038008800F0FE000749103908800020E6
:103BE0000A49087001200A4908700348008820F03B
:103BF0000100014908807047102C01402600002078
:103C0000200000201C0000202200002023000020B3
:103C1000280000204FF08040008A00F0010040B1F1
:103C20000020084908600807008800F0FE00090726
:103C300008804FF08040008A20F001004FF0804162
:103C400008827047A401214270B505460C460D4814
:103C5000C06940F001000B49C8618804858504856E
:103C6000808940F00100890488810846008A20F09C
:103C70000100088202231C2203210846FEF7C6FC2D
:103C800070BD0000001002400A48008800F00100EA
:103C900040B10120084908608007008840F0010019
:103CA000090708800348008820F0010001490880C6
:103CB0007047000010040040A401214270B5054681
:103CC0000C460F48C06940F002000D49C8610D481C
:103CD0000580001F04800B482038008840F0010058
:103CE000084920390880081D008820F00100091DBE
:103CF000088002231D2203210846FEF787FC70BDC1
:103D0000001002402C04004000B54D48008800F02F
:103D1000010000287ED04B4800784B490978884242
:103D200016DA4948007847490978401A474909781E
:103D300090FBF1F0401C4349097808444149087060
:103D400008460078FDF7DBFE3D49283108801BE07E
:103D50003C4800783C490978884215DD39480078AC
:103D600039490978401A3949097890FBF1F0401C2B
:103D700034490978081A3349087008460078FDF775
:103D8000BEFE2F4928310880314800783149097832
:103D9000884216DA2F4800782D490978401A2B49B5
:103DA000097890FBF1F0401C29490978084428491A
:103DB000087008460078FDF7A2FE214924310880EA
:103DC0001BE02348007823490978884215DD204804
:103DD000007820490978401A1C49097890FBF1F0D5
:103DE000401C1B490978081A1949087008460078D0
:103DF000FDF785FE124924310880124800781249E7
:103E00000978884215D11248007812490978884209
:103E10000FD100E013E000200F49087001200F4986
:103E200008700748001F008820F001000449091F9E
:103E300008800348008820F001000149088000BD87
:103E4000100800402A0000202C0000202F00002035
:103E50002B0000202D000020290000202E00002033
:103E600070B504460D463548C06940F0040033493A
:103E7000C8610846806940F00800886130480068E1
:103E800020F07F402E4908600846006840F03B4023
:103E900008602C480480001F05802A4814380088D8
:103EA00040F070002749143908800846008840F027
:103EB0000800088023480C38008840F0020021499F
:103EC0000C3908800846008840F0010008801D4831
:103ED0001438008840F4E0401A4914390880084634
:103EE000008840F40060088016480C38008840F0D4
:103EF000200014490C3908800846008840F0100062
:103F0000088080200F492C3908800846008840F03E
:103F1000010008800020FDF7F2FD0A490831088001
:103F20000020FDF7ECFD07490C31088002231E221A
:103F300019460120FEF76AFB70BD00000010024028
:103F4000000C01402C0800401D49098801F02001A7
:103F500011B31B49091D0988C8B21A49098801F41F
:103F60000041C9B91749098801F4804161B10A28A3
:103F700003D00021134A118020E01249098841F43E
:103F80000041104A118019E00D2806D10D49098819
:103F900041F480410B4A118010E00A490988C1F3BD
:103FA0000D01094A505407490988491C054A1180E6
:103FB00011460988C72901DD0021118070470000E2
:103FC0000038014008000020540100201D490988E4
:103FD00001F0200111B31B49091D0988C8B21A4913
:103FE000098801F40041C9B91749098801F48041E1
:103FF00061B10A2803D00021134A118020E0124940
:10400000098841F40041104A118019E00D2806D1B9
:104010000D49098841F480410B4A118010E00A499A
:104020000988C1F30D01094A505407490988491C00
:10403000054A118011460988C72901DD0021118038
:1040400070470000004400400A0000201C020020CD
:104050001D49098801F0200111B31B49091D098878
:10406000C8B21A49098801F40041C9B91749098839
:1040700001F4804161B10A2803D00021134A118064
:1040800020E01249098841F40041104A118019E0EA
:104090000D2806D10D49098841F480410B4A118051
:1040A00010E00A490988C1F30D01094A5054074933
:1040B0000988491C054A118011460988C72901DD74
:1040C0000021118070470000004800400C000020D3
:1040D000E402002000200349488408840249088043
:1040E00001207047D40300205000002003480068DE
:1040F00040F480200149086070470000140401402A
:104100007047000010B50848084908600220096897
:1041100008720748074908600748084908600549C8
:1041200009680868804710BDB80300203C000020E3
:10413000C400002040000020F400002048000020BF
:1041400010B50D48006840F480200B4908600A480B
:104150000830006840F480200749083108600223D5
:10416000142200210120FEF751FA02232A22002105
:104170000846FEF74BFA10BD0004014010B588B0A8
:10418000002469480068694908800846008800F4EE
:10419000007067490988084050B14FF6FF506249E6
:1041A000086064480078401C62490870FEF7D2FD40
:1041B0005E48008800F400405D490988084008B165
:1041C000FDF7F4FC5948008800F4806058490988DC
:1041D000084030B14FF6FF305349086056494868EF
:1041E00080475248008800F400505149098808402F
:1041F00018B14DF6FF704C4908604C48008800F437
:1042000080504B490988084030B14EF6FF7046494E
:1042100008600020FEF760FC4448008800F400605D
:1042200043490988084060B14448007810B1FFF75D
:10423000FFFB02E00220FEF74FFC4FF2FF703A490D
:1042400008603A48008800F48070394909880840BD
:10425000002866D04FF6FF6033490860081D0068EB
:1042600000F40040002856D035480068401C34490E
:10427000086008460068032850D92B48001F0068D2
:1042800000F00800002849D12748001F006880B2CC
:104290002C490860002408E02B4901EB8400D0F889
:1042A000000C80B24DF82400641C082CF4D325487F
:1042B000006840F00100234908600846006880B2A9
:1042C0001949091F08601F48006820F001001D49B6
:1042D00008600846006880B21349091F086000BFE3
:1042E0001148006800F480600028F9D04FF6FF30D4
:1042F0000D490860002408E05DF8240080B2124AED
:1043000002EB8401C1F8000C641C082CF4D30020DB
:104310000B49086002E00020094908600720FEF709
:10432000DBFB08B010BD0000445C004070000020C2
:104330004600002072000020C40000204C01002034
:1043400074000020780000200050004010B5FFF7F6
:1043500015FF10BD1249896941F00401104A9161AD
:1043600038B11049096889B221F002010D4A116083
:1043700014E00C49096889B241F00201094A116050
:104380000949096821F47F21074A1160114609682B
:1043900041F44C3111600021044A11607047000063
:1043A00000100240405C004004080140B00121427E
:1043B0000020064908604FF43F4005490880084640
:1043C00000880249091F086000207047445C0040D3
:1043D000460000202DE9F04104460E46002504F079
:1043E0007F00FDF7D9FF054604F07F00FDF7C4FF0D
:1043F00007462A4639463046FEF728FA2846BDE8E1
:10440000F081000030B503460A46002133E0585CD5
:104410001A4C248804F400445CBB184C248804F42F
:10442000804464B10A2803D00024144D2C8020E07D
:10443000124C248844F40044104D2C8019E00D28BF
:1044400006D10E4C248844F480440C4D2C8010E09E
:104450000A4C2488C4F30D04094D2855074C2488C0
:10446000641C064D2C802C4624881F2C01DD002462
:104470002C804C1CE1B29142C9DB30BD50000020C1
:10448000180400200749098C064A50541146098C2B
:10449000491C11841146098C202901D10021118465
:1044A00070470000D4030020F0B5144604F1010C5D
:1044B0004FEA6C07DFF824C00CEB41033D460AE0ED
:1044C0000678401C90F800C046EA0C2223F8022B24
:1044D0009B1C401C6D1E002DF2D1F0BD0060004001
:1044E00070B504460025212C08D1124800680078D8
:1044F00000F07F0021280ED10F4D0CE0202C0AD1B6
:104500000C480068007800F07F00212800D10B4D96
:1045100020200B4908700DB9022070BD05480068C5
:10452000856100210348006841820020A8470020DF
:10453000F3E700003C0000206D450008FD46000840
:10454000B400002010B5044602492046FEF70AFFD9
:1045500010BD00002001002010B50446024920468D
:10456000FEF700FF10BD000018010020014629B928
:104570000820034A12681082002070470148FCE7B7
:104580003C000020B800002070B5054606480068D1
:10459000C478042C01DD002070BD044800EBC40188
:1045A0002846FEF7DFFEF7E73C0000202801002048
:1045B0000246002901DD02207047012A01DD0220A8
:1045C000FAE70020F8E70000014608480068007894
:1045D00000F07F00212807D1022901D10020704777
:1045E000222901D10020FAE70220F8E73C00002050
:1045F00010B500203449096888723448C0793249BE
:1046000009684872002030490968C872FEF7BAFB91
:104610004FF400710020FEF7AFFC10210020FEF7E0
:1046200071FC40210020FEF7DDFB80210020FEF719
:104630004BFC0020FDF732FC254890F82C100020A0
:10464000FEF7E2FB0020FEF725FC00210120FEF72B
:1046500093FCC0210120FEF737FC20210120FEF74A
:1046600051FC00210120FEF7F5FB4FF4C061022050
:10467000FEF782FC4FF480710220FEF725FC00213A
:104680000220FEF7E7FB20210220FEF73BFC002181
:104690000320FEF771FC4FF488710320FEF7A2FBA4
:1046A00040210320FEF7B0FB4FF440510320FEF7FA
:1046B000D1FB00210320FEF725FC0020FEF76AFB5A
:1046C00001200449086010BD3C00002088610008FA
:1046D000C4000020480100200348817A11B105215F
:1046E000024A116070470000B80300204801002012
:1046F000042001490860704748010020014629B99B
:104700000820034A12681082002070470148FCE725
:104710003C000020B800002010B505480078202893
:1047200004D1FFF7D7FC00200149087010BD00003C
:10473000B40000207047000010B5FDF761FE0020B6
:10474000054909688872FEF7B9F8FFF731FE0020C5
:104750000249086010BD00003C0000204801002014
:1047600000B50020024908707F2000F05FF800BD0E
:104770003100002000B50848007803280BDA07480C
:10478000007800F053F800200549086002480078DE
:10479000401C0149087000BD31000020300000209D
:1047A000082C004070B506460C4615461C48C069EA
:1047B00040F400601A49C8611A480078304019492D
:1047C00008701948006840EAC51017490860084693
:1047D00000684FF680710840134908600846006879
:1047E00020430860081F00680E49097808430E49F5
:1047F000091F08600846006840F080000860022336
:10480000002211461046FDF701FF00200649091D50
:104810000860081F006840F40070091F086070BD40
:104820000010024030000020042C004000F07F0106
:10483000014A116070470000002C004001460E48FC
:104840008078082815DA0C484278C01C8154C21EB2
:104850005278501CC21700EB5272D210A0EBC20269
:10486000054B5A7018468078401C1A4690700120FB
:1048700070470020FCE70000AC030020490050EA2C
:10488000C12018BF04204A0D18BF40F0010040F2BB
:10489000FF72B2EB515F08BF40F00200012808BF71
:1048A0000520704730380A2801D2012070470020C7
:1048B0007047014600BF70474FF0E021096921F0C1
:1048C00004014FF0E0221161C21700EB5272C2F3F3
:1048D000C702074B1A701946097801EB4102C2EB77
:1048E000C1114FF6FF7202EAC101024A11807047FE
:1048F000000000200200002001460D4A12884A43B1
:104900004FF0E0235A6100229A6101221A6100BF30
:104910004FF0E022106900F001021AB100F4803279
:10492000002AF5D000224FF0E0231A619A61704707
:104930000200002008B5002500260920FFF730F806
:104940004820FFF7B9FFFDF7EFFDFEF789FEC7210D
:1049500041F61F40FFF784FA00216420FEF70EFCA9
:10496000FDF71AF9FEF732F96420FFF7C5FF0020C2
:10497000FFF7F0FC4FF42F70FFF7BEFF0120FFF7A9
:10498000E9FCFEF791FBFFF7DBFBFFF7BBFB032224
:104990007F210846FFF706FFE3E072480068854282
:1049A0000BD070480068C5B2052D03D100206E49B8
:1049B000086002E001206C490860FDF7A9F87EB9A3
:1049C0006A48007801280BD1FDF7E6F8FEF7FEF8FB
:1049D00041210020FEF72EFB42210020FEF72AFB9A
:1049E000624806786248008800F4004010B35F48CF
:1049F0000078C8B95E480088C0F30D0421465D48C0
:104A0000FDF77CFF00909DF80000112808D09DF86C
:104A10000000FFF713FF50B957A000F0D1F806E0EF
:104A200057A000F0CDF802E059A000F0C9F800202E
:104A30004F490880FDF7DEFC002818DDFDF716FD64
:104A400000287DD1FDF7FEFC002879D14748007889
:104A5000002875D16846FEF71FF8012870D19DF82F
:104A60000000FEF7BBF818B14CA000F0A9F867E011
:104A70009DF80000112861D2DFE800F009131D0E37
:104A800018223127362C3B40454A4F5C58004121C3
:104A90000020FEF7CFFA52E042210020FEF7CAFACA
:104AA0004DE041214D20FEF7C5FA48E04221492062
:104AB000FEF7C0FA43E041215720FEF7BBFA3EE083
:104AC00042215320FEF7B6FA39E041210020FEF7DB
:104AD000FDFE34E042210020FEF7F8FE2FE04121E8
:104AE0000120FEF7F3FE2AE042210120FEF7EEFE50
:104AF00025E041210020FEF77BFE20E0422100203E
:104B0000FEF776FE1BE041210120FEF771FE16E064
:104B100042210120FEF76CFE11E02549098888B288
:104B2000FEF73CFA23A000F04BF808E021A000F0CB
:104B300047F804E01FA000F043F800E000BF00BF0A
:104B4000FDF78CFC10B9FDF775FC28B1074800781B
:104B500010B918A000F034F8FFF702FE0120FFF7AB
:104B6000CBFE1AE748010020B401224224000020B5
:104B70005000002018040020425553590D0A00002F
:104B800052656365697665204572726F720D0A0021
:104B9000414C4D5F4F4E0D0A00000000494C4C65E2
:104BA00067616C204F7065726174696F6E0D0A00E9
:104BB0001800002046696E6973680D0A0000000045
:104BC0000FB438B505A800900B48009A0499FBF77C
:104BD0006FFB002000900848FBF789FB85B200249A
:104BE00005E00549085DFFF74DFC601C84B2AC424E
:104BF000F7DB38BC5DF814FBF803002010B5002982
:104C00000AD00878002807D005487844FBF704FC50
:104C1000002801D0002010BD0248784410BD0000DB
:104C2000161700000E17000010B500290AD00878EA
:104C3000002807D005487844FBF7EEFB002801D098
:104C4000002010BD0248784410BD0000FA17000093
:104C5000F21700004FF47F0C1CEAD0121EBF1CEAB2
:104C6000D11392EA0C0F93EA0C0F00F0858090EAC2
:104C7000010F48BF42F4807240F4000C41F4000080
:104C80002CF07F4120F07F4000B58142A2EB03026F
:104C90000FF2081CACEB504EC0F100009EF800E093
:104CA0004FEA4E0E00FB0EFC38BF49004FEA2C1CA9
:104CB00002F5FA020CFB0EF34FEACE1E4FEA112C5E
:104CC0004FEAC1210EEB635E42EB22420EFB0CFC6D
:104CD0004FEA1C5300FB03114FEA112C4FEA01313C
:104CE0000EFB0CFC4FEADC4C00FB0C11C14228BF50
:104CF00009184CEB03335DF804EB10EB410143EB77
:104D0000C250B2F57C0F38BF704729D512F0F00FB2
:104D10001CBF00F1C04000F000407047008182835A
:104D20008485868788898B8C8D8E8F9192939596BA
:104D300097999A9C9D9FA0A2A3A5A7A8AAACAEB044
:104D4000B2B3B5B7B9BCBEC0C2C5C7C9CCCED1D449
:104D5000D7D9DCDFE2E6E9ECF0F3F7FAFE00000079
:104D60004FEA400C0CF1807CBCF17E4F28BF7047AD
:104D7000B0F1C04000F02BB990EA010F0CEAD1135A
:104D800048BF42F48072624538BF634507D213F4CE
:104D90007F0F16D080EA010000F00040704710B588
:104DA00000F0CFF8097EFC3E00F005B880EA010073
:104DB00000F00040704780EA010000F0004000F081
:104DC00006B912F47F0F04BF0248704780EA010061
:104DD00000F0FDB80000C07FC10DD1F19E0206DBDE
:104DE0004FEA002343F0004323FA02F070470042E9
:104DF00007D54FEA4001B1F1FE4F02D24FF000005B
:104E0000704710B500F09DF849922480002070474B
:104E10006FEA200070470000B0FA80F310FA03F246
:104E2000C3F19D030AD0D90501EB1220530638BF08
:104E3000704700F1010008BF20F00100704700003A
:104E40004FF47F0C1CEAD0121EBF1CEAD11392EA69
:104E50000C0F93EA0C0F00F0478090EA010F48BF57
:104E600042F480724FF0004C4CEA00204CEA0121E1
:104E700002EB0302A0FB0113A2F50002002918BFF8
:104E800043F001035B0028BF4FEA330342EB2242A9
:104E90005FEA132C4CEBC2502EBFBCEB436FB2F554
:104EA0007C0F70474FEA036CBCF1004F08BF20F045
:104EB0000100B2F57C0F38BF70470BD582F0FF02BE
:104EC00012F5803FC8BF704700F1C040D8BF00F066
:104ED0000040704700F5000C5FEA4C0C48BF70477B
:104EE000B0F1C04000F073B890EA010F0CEAD113A2
:104EF00048BF42F48072624538BF634504D280EAFD
:104F0000010000F00040704710B500F01AF800BF33
:104F10008900013E00F007B800F009B85FEA410CD3
:104F20005FEA1C6C08D080EA010000F050B85FEA2C
:104F3000400C5FEA1C6CF6D14FF00040A0F58000F9
:104F400070470EF1020E2EF0030E5EF8044B244261
:104F500004D44FEA4102B2F17F4F11D84FEA400327
:104F6000B3F17F4F0CD80ED14FEAD07CB2F17F4F16
:104F70000CEB4C0C0CF1020C08BF4CEBD17C04E0A8
:104F80004FF0080C01E04FEAD17C0CEB4C0324FA03
:104F900003F404F00704B4F1040C06D20EEB840C05
:104FA000BDE810404CF0010C6047DFE80CF007084A
:104FB00002024FF00040A0F5800010BD08464200FC
:104FC00018BFD2F1807288BF00F0004010BDFF21F1
:104FD00041EAD050C0057047FBF7F3BE0F273325D9
:104FE000CE201A1C29181415AF12CC10470F0A0E28
:104FF000010D210C620BBB0A2A0AA9093709D00846
:1050000074082008D3078D074C071107DA06A60697
:1050100077064B062306FF05DE05BF05A2058805BA
:105020006F05580543052F051C050A05F904E90419
:10503000D904CB04BD04B004A40498048C048204F5
:1050400077046D0464045B0452044A0442043A0485
:1050500033042B0425041E04180411040B04060455
:105060000004FB03F603F103EC03E803E303DF03AF
:10507000DB03D703D303CF03CC03C803C503C203A9
:10508000BF03BC03B903B603B403B103AF03AC035E
:10509000AA03A803A603A403A203A0039E039D03DF
:1050A0009B039A0398039703960395039403930332
:1050B0009203910390038F038F038E038E038D035E
:1050C0008D038D038C038C038C038C038C038C0366
:1050D0008C038C038C038C038C038C038C038C0358
:1050E0008C038C038C038D038D038D038E038E0341
:1050F0008F038F039003910392039303940395030B
:105100009603970398039A039B039D039E03A003B2
:10511000A203A403A603A803AA03AC03AF03B1032D
:10512000B403B603B903BC03BF03C203C503C8037A
:10513000CC03CF03D303D703DB03DF03E303E8038D
:10514000EC03F103F603FB03000406040B04110453
:1051500018041E0425042B0433043A0442044A04B0
:1051600052045B0464046D04770482048C04980484
:10517000A404B004BD04CB04D904E904F9040A056D
:105180001C052F05430558056F058805A205BF05B9
:10519000DE05FF0523064B067706A606DA0611078D
:1051A0004C078D07D30720087408D0083709A909D0
:1051B0002A0ABB0A620B210C010D0A0E470FCC1004
:1051C000AF12141529181A1CCE2033250F27010001
:1051D0000F278223A01C00171C136210640EE10C21
:1051E000B10BBB0AF0094609B4083608C9076807BD
:1051F0001107C4067E063F060506D0059F05720509
:1052000048052105FD04DB04BC049E0482046704F8
:105210004E04360420040B04F603E303D003BF035B
:10522000AE039D038E037F037103640357034B0397
:10523000400335032B03210318030F030603FE026B
:10524000F602EE02E702E002D902D302CC02C60265
:10525000C002BB02B502B002AA02A502A0029C02D3
:10526000970293028E028A02860282027E027A02EC
:105270007702730270026C026902660262025F02C8
:105280005C0259025702540251024E024C0249027A
:105290004702440242023F023D023B02390237020A
:1052A0003402320230022E022C022B022902270283
:1052B00025022302220220021E021D021B021902E5
:1052C0001802160215021402120211020F020E0237
:1052D0000D020B020A02090208020702050204027B
:1052E0000302020201020002FF01FE01FD01FC01B6
:1052F000FB01FA01F901F801F701F601F601F501E8
:10530000F401F301F201F201F101F001EF01EF010B
:10531000EE01ED01ED01EC01EB01EB01EA01E90128
:10532000E901E801E801E701E701E601E601E5013D
:10533000E501E401E401E301E301E301E201E2014B
:10534000E101E101E101E001E001E001DF01DF0154
:10535000DF01DF01DE01DE01DE01DE01DD01DD0155
:10536000DD01DD01DD01DC01DC01DC01DC01DC0152
:10537000DC01DC01DC01DB01DB01DB01DB01DB014A
:10538000DB01DB01DB01DB01DB01DB01DB01DB013D
:10539000DB01DB01DB01DB01DB01DB01DB01DB012D
:1053A000DB01DB01DB01DB01DB01DB01DB01DB011D
:1053B000DB01DB01DB01DB01DB01DB01DB01DB010D
:1053C000DB01DB01DB01DB01DB01DB01DB01DB01FD
:1053D000DB01DB01DB01DB01DB01DB01DB01DB01ED
:1053E000DB01DB01DB01DB01DB01DB01DB01DB01DD
:1053F000DB01DB01DB01DB01DB01DB01DB01DB01CD
:10540000DB01DB01DB01DB01DB01DB01DB01DB01BC
:10541000DB01DC01DC01DC01DC01DC01DC01DC01A5
:10542000DC01DD01DD01DD01DD01DD01DE01DE018B
:10543000DE01DE01DF01DF01DF01DF01E001E0016C
:10544000E001E101E101E101E201E201E301E30147
:10545000E301E401E401E501E501E601E601E7011C
:10546000E701E801E801E901E901EA01EB01EB01EB
:10547000EC01ED01ED01EE01EF01EF01F001F101B1
:10548000F201F201F301F401F501F601F601F70171
:10549000F801F901FA01FB01FC01FD01FE01FF0128
:1054A00000020102020203020402050207020802CE
:1054B00009020A020B020D020E020F021102120271
:1054C000140215021602180219021B021D021E0206
:1054D0002002220223022502270229022B022C028B
:1054E0002E02300232023402370239023B023D0200
:1054F0003F0242024402470249024C024E0251025C
:105500005402570259025C025F026202660269029B
:105510006C027002730277027A027E0282028602B5
:105520008A028E02930297029C02A002A502AA029E
:10553000B002B502BB02C002C602CC02D302D9023D
:10554000E002E702EE02F602FE0206030F03180372
:1055500021032B03350340034B03570364037103FB
:105560007F038E039D03AE03BF03D003E303F60363
:105570000B04200436044E04670482049E04BC0419
:10558000DB04FD042105480572059F05D0050506CD
:105590003F067E06C40611076807C9073608B40827
:1055A0004609F009BB0AB10BE10C640E62101C1332
:1055B0000017A01C82230F2701000F27E61BF41100
:1055C000830D080B6E094C087307C9064006CF050A
:1055D00070051F05D8049A04630432040604DF032F
:1055E000BA0399037B036003480332031E030C03D1
:1055F000FB02EC02DD02D002C402B802AD02A3023B
:105600009A02910288028002790272026B0264029D
:105610005E02580252024D02480243023E023A0222
:10562000350231022D022A02260222021F021C022A
:1056300019021602130210020D020B0208020602E2
:1056400004020102FF01FD01FB01F901F801F6016D
:10565000F401F301F101F001EE01ED01EC01EA01C9
:10566000E901E801E701E601E501E401E301E20106
:10567000E201E101E001E001DF01DE01DE01DD0127
:10568000DD01DD01DC01DC01DC01DC01DB01DB0132
:10569000DB01DB01DB01DB01DB01DB01DB01DB012A
:1056A000DB01DB01DB01DB01DB01DB01DB01DB011A
:1056B000DB01DB01DB01DB01DB01DB01DB01DB010A
:1056C000DB01DB01DB01DB01DB01DB01DB01DB01FA
:1056D000DB01DB01DB01DB01DB01DC01DC01DC01E7
:1056E000DC01DD01DD01DD01DE01DE01DF01E001C4
:1056F000E001E101E201E201E301E401E501E6018B
:10570000E701E801E901EA01EC01ED01EE01F00138
:10571000F101F301F401F601F801F901FB01FD01CA
:10572000FF0101020402060208020B020D02100230
:105730001302160219021C021F02220226022A026A
:105740002D02310235023A023E02430248024D0266
:10575000520258025E0264026B02720279028002F7
:10576000880291029A02A302AD02B802C402D002DA
:10577000DD02EC02FB020C031E033203480360034C
:105780007B039903BA03DF030604320463049A041B
:10579000D8041F057005CF054006C90673074C08DD
:1057A0006E09080B830DF411E61B0F2701000F276C
:1057B000D61E1115F70F060D1C0BC109BE08F40704
:1057C0005107CA065906F905A5055C051B05E10444
:1057D000AE047F0454042D040A04E903CA03AE0393
:1057E00094037B0364034F033A0327031503040365
:1057F000F402E402D602C802BA02AE02A202960283
:105800008B02800276026C0263025A025102490244
:1058100042023A0233022D02260220021A02150227
:105820000F020A0205020002FC01F701F301EE017A
:10583000EA01E601E301DF01DB01D801D401D10176
:10584000CE01CB01C801C501C201BF01BC01BA0133
:10585000B701B501B201B001AE01AB01A901A701C9
:10586000A501A301A1019F019D019B019901970140
:1058700095019401920190018F018D018C018A01A3
:1058800088018701860184018301810180017F01F4
:105890007D017C017B017A01790177017601750137
:1058A000740173017201710170016F016E016D016C
:1058B0006C016B016A01690168016701660166019B
:1058C00065016401630162016201610160015F01C0
:1058D0005F015E015D015C015C015B015A015A01DF
:1058E00059015901580157015701560156015501F7
:1058F000550154015301530152015201510151010B
:105900005101500150014F014F014E014E014D0117
:105910004D014D014C014C014C014B014B014A0121
:105920004A014A0149014901490149014801480127
:105930004801470147014701470146014601460129
:105940004601450145014501450145014401440128
:105950004401440144014401430143014301430123
:10596000430143014301430142014201420142011B
:10597000420142014201420142014201420142010F
:1059800042014201420142014201420142014201FF
:1059900042014201420142014201420142014201EF
:1059A00042014201420142014201420142014201DF
:1059B00042014201420142014201420142014201CF
:1059C00042014201420142014201420142014201BF
:1059D00042014201420142014201420143014301AD
:1059E0004301430143014301430143014401440195
:1059F000440144014401440145014501450145017B
:105A0000450146014601460146014701470147015C
:105A1000470148014801480149014901490149013B
:105A20004A014A014A014B014B014C014C014C0116
:105A30004D014D014D014E014E014F014F015001ED
:105A400050015101510151015201520153015301C1
:105A5000540155015501560156015701570158018E
:105A6000590159015A015A015B015C015C015D0158
:105A70005E015F015F01600161016201620163011A
:105A800064016501660166016701680169016A01D7
:105A90006B016C016D016E016F017001710172018A
:105AA0007301740175017601770179017A017B0137
:105AB0007C017D017F0180018101830184018601D8
:105AC000870188018A018C018D018F01900192016B
:105AD00094019501970199019B019D019F01A101ED
